:020000040000FA
:1020000020EF10F0FFFFFFFF1282FACF01F0FBCFAD
:1020100002F0F2AA0EEF10F010EF10F01AEF10F02D
:10202000F2A415EF10F017EF10F01AEF10F0C6EC55
:1020300010F08B8402C0FBFF01C0FAFF1292110066
:102040000DEF11F018EC11F0F28EF28C000E096E0B
:10205000000E086E8BA42FEF10F031EF10F039EF67
:1020600010F0080E076ECA0EE82EFED7072EFCD71A
:102070008B948BA43EEF10F040EF10F039EF10F08E
:10208000084A092A09BE4DEF10F0095008E1082856
:10209000D8A04DEF10F04FEF10F02AEF10F0000E27
:1020A0000B6E000E0A6E8BA458EF10F05AEF10F072
:1020B00063EF10F0180E076E5F0EE82EFED7072EA6
:1020C000FCD700F08B948BA468EF10F06AEF10F04F
:1020D00063EF10F00A4A0B2A0BBE77EF10F00B509B
:1020E00008E10A28D8A077EF10F079EF10F053EF4D
:1020F00010F0000E0D6E000E0C6E8BA482EF10F02F
:1021000084EF10F08DEF10F0270E076EF50EE82E1D
:10211000FED7072EFCD700F08B948BA492EF10F023
:1021200094EF10F08DEF10F00C4A0D2A0DBEA1EFC8
:1021300010F00D5008E10C28D8A0A1EF10F0A3EF8B
:1021400010F07DEF10F026EF10F020EF10F0000EF1
:102150008D6E000E8C6E000E896E000E8A6E000E63
:102160008B6E070E966E92689368C30E946E956898
:102170000F015E69C40E5D6F3F0E5C6F070E5F6FEF
:102180002F0E5B6F000E856EF18E1200F2940F50D1
:10219000D76E0EC0D6FF10501110D8B4D2EF10F089
:1021A000D4EF10F0E1EF10F002D8E1EF10F00500ED
:1021B000FA6E1050FD6E1150FE6EF850FF6EFA5020
:1021C00012001200D59C150ED76E9F0ED66ED650FB
:1021D000D7CF05F0066A05C006F0056A05100E6E39
:1021E00006500F6EF294F28A500E036E220E046EA9
:1021F00021EC11F0910ED56E1200700ED36E000E10
:10220000D26E800E9B6E000EB56ED2AE0AEF11F04C
:102210000CEF11F005EF11F01200116A106A0F6A4D
:102220000E6A12901292000EF86E000122EF10F06A
:1022300026EC11F0A7EC10F0FDEC10F0E2EC10F041
:10224000120003C010F004C011F01200D09E120062
:102250001200FFFFFFFFFFFFFFFFFFFFFFFFFFFF7A
:10226000FFFFFFFFFFFFFFFFFFFFFFFFFFFFFFFF7E
:10227000FFFFFFFFFFFFFFFFFFFFFFFFFFFFFFFF6E
:020000040030CA
:0400000003285F3C36
:0200060081FF78
:020000040020DA
:0800000004020C0F00000000D7
:00000001FF
