:020000040000FA
:1010000007EF08F0FFFFFFFF5A82D2ED11F007EF64
:1010100012F00950800B126E09500924146E08AEAC
:1010200014EF08F016EF08F017EF08F014801450D2
:10103000D8B41DEF08F01FEF08F034EF08F01428C3
:10104000D8A425EF08F027EF08F02FEF08F0000EE6
:10105000066E000E076E000E086E000E096E088EFA
:10106000000E096E3CEF08F0000E066E000E076ED3
:10107000000E086E000E096E0D50800B136E12509C
:101080001318D8B446EF08F048EF08F049EF08F01D
:10109000128C0D500D24136E0CAE51EF08F053EF6F
:1010A00008F054EF08F013801350D8B45AEF08F04A
:1010B0005CEF08F071EF08F01328D8A462EF08F095
:1010C00064EF08F06CEF08F0000E0A6E000E0B6E75
:1010D000000E0C6E000E0D6E0C8E000E0D6E79EF74
:1010E00008F0000E0A6E000E0B6E000E0C6E000E65
:1010F0000D6E1450135CD8B080EF08F082EF08F04A
:10110000A9EF08F012AC87EF08F089EF08F08BEF39
:1011100008F0800E121A14C015F013C014F015C098
:1011200013F006C015F00AC006F015C00AF007C09B
:1011300015F00BC007F015C00BF008C015F00CC07F
:1011400008F015C00CF009C015F00DC009F015C06D
:101150000DF0000E156E145013C00EF00F6A0E5EE7
:10116000000E0F5A0FBEBEEF08F00F5009E11A0E25
:101170000E5CD8A0BEEF08F0C0EF08F0F7EF08F063
:101180000650071008100910D8A4C9EF08F0CCEFDA
:1011900008F0010ECDEF08F0000E156E000E066E81
:1011A000000E076E000E086E000E096E13C014F0DC
:1011B00000EF09F015A0DFEF08F0E1EF08F0E7EF2E
:1011C00008F0D89015300109156EE9EF08F0D890B5
:1011D000153206A0EEEF08F0F0EF08F0F1EF08F09E
:1011E000158E09340932083207320632142A135098
:1011F000145CD8A0FEEF08F000EF09F0DAEF08F079
:1012000012BC05EF09F007EF09F047EF09F01450A1
:10121000D8A40DEF09F00FEF09F019EF09F0000E57
:10122000066E000E076E000E086E000E096E68EF67
:101230000AF00A5006260B5007220C5008220D50C7
:10124000092209A026EF09F028EF09F0D4EF09F0F0
:1012500015A02DEF09F02FEF09F035EF09F0D89028
:1012600015300109156E37EF09F0D890153206A038
:101270003CEF09F03EEF09F03FEF09F0158E09341D
:101280000932083207320632142AD4EF09F00A5024
:10129000065C0B5007580C5008580950800A0E6E17
:1012A0000D50800A0E58D8B058EF09F05AEF09F0E7
:1012B00085EF09F006500A5C0E6E07500B580F6E52
:1012C00008500C58106E09500D58116EFF0E0E2468
:1012D000066EFF0E0F20076EFF0E1020086EFF0E29
:1012E0001120096E800E121A156C1550D8A47BEFD0
:1012F00009F07DEF09F08DEF09F0010E0626000ED2
:101300000722082209228DEF09F00A50065E0B50D1
:10131000075A0C50085A0D50095A06500710081069
:101320000910D8A496EF09F098EF09F0CDEF09F075
:101330001550D8A49EEF09F0A0EF09F0CDEF09F009
:10134000000E066E000E076E000E086E000E096E8F
:1013500068EF0AF0D890063607360836093615AE1B
:10136000B4EF09F0B6EF09F0B7EF09F0068015A069
:10137000BCEF09F0BEEF09F0C2EF09F0D8801536D6
:10138000C4EF09F0D89015361450D8B4CAEF09F05C
:10139000CCEF09F0CDEF09F0140608AED2EF09F05A
:1013A000D4EF09F0AAEF09F0000E136E15AEDBEFD3
:1013B00009F0DDEF09F0F5EF09F015C00EF07F0E32
:1013C0000E16D8B4E6EF09F0E8EF09F0ECEF09F0FB
:1013D000010E136EF5EF09F006A0F1EF09F0F3EF3F
:1013E00009F0F5EF09F0E8EF09F01350D8B4FBEF7E
:1013F00009F0FDEF09F028EF0AF0010E0626000EB5
:1014000007220822092209A008EF0AF00AEF0AF0D1
:1014100028EF0AF006C00EF007C00FF008C010F069
:1014200009C011F01134113210320F320E320EC0D9
:1014300006F00FC007F010C008F011C009F0142822
:10144000D8B425EF0AF027EF0AF028EF0AF0142AA3
:101450001428D8B42EEF0AF030EF0AF038EF0AF073
:101460001450D8A436EF0AF038EF0AF04AEF0AF029
:10147000000E066E000E076E000E086E000E096E5E
:101480001450D8A446EF0AF048EF0AF04AEF0AF0E9
:10149000000E126E14A04FEF0AF051EF0AF054EF55
:1014A0000AF0088E55EF0AF0089ED8901430096EA5
:1014B00012AE5DEF0AF05FEF0AF060EF0AF0098EFE
:1014C00006C006F007C007F008C008F009C009F020
:1014D00012001950800B226E19501924286E18AE74
:1014E00074EF0AF076EF0AF077EF0AF028802850C0
:1014F000D8B47DEF0AF07FEF0AF092EF0AF02828C7
:10150000D8A485EF0AF087EF0AF08FEF0AF0000EFB
:10151000166E000E176E000E186E000E196E188EE5
:101520009AEF0AF0000E166E000E176E000E186E7F
:10153000000E196E1D50800B221A1D501D24276E9F
:101540001CAEA5EF0AF0A7EF0AF0A8EF0AF027807B
:101550002750D8B4AEEF0AF0B0EF0AF0C3EF0AF0AC
:101560002728D8A4B6EF0AF0B8EF0AF0C0EF0AF0C7
:10157000000E1A6E000E1B6E000E1C6E000E1D6E0D
:101580001C8ECBEF0AF0000E1A6E000E1B6E000EC2
:101590001C6E000E1D6E2750D8B4D1EF0AF0D3EFA9
:1015A0000AF0DBEF0AF02850D8A4D9EF0AF0DBEFFD
:1015B0000AF0E5EF0AF0000E166E000E176E000E30
:1015C000186E000E196E7DEF0CF01C501602F3CF52
:1015D0002DF0F4CF2EF02D50236E246A256A266A52
:1015E0002E50296E2A6A2B6A2C6A1B501702F3CFE1
:1015F0002DF0F4CF2EF02D502326000E242225228C
:1016000026222E502926000E2A222B222C221A5066
:101610001802F3CF2DF0F4CF2EF02D502326000E1C
:101620002422252226222E502926000E2A222B2271
:101630002C2225C026F024C025F023C024F0236AE4
:101640001A501702F3CF2DF0F4CF2EF02D50232691
:101650002E502422000E2522000E26221B50160298
:10166000F3CF2DF0F4CF2EF02D5023262E50242230
:10167000000E2522000E262225C026F024C025F0CB
:1016800023C024F0236A1A501602F3CF2DF0F4CFB2
:101690002EF02D5023262E502422000E2522000E3F
:1016A00026221C501702F3CF2DF0F4CF2EF02D5030
:1016B00029262E502A22000E2B22000E2C221B50EF
:1016C0001802F3CF2DF0F4CF2EF02D5029262E50F6
:1016D0002A22000E2B22000E2C221C501802F3CFBF
:1016E0002DF0F4CF2EF02D501E6E2E501F6E206A5E
:1016F000216A20C021F01FC020F01EC01FF01E6A0A
:101700001E5029261F502A2220502B2221502C22E5
:1017100023C01EF024C01FF025C020F026C021F0F9
:10172000190E98EF0BF0D890213220321F321E3262
:10173000E82E93EF0BF01E5029261F502A2220502E
:101740002B2221502C2225C026F024C025F023C0B6
:1017500024F0236A275028C01EF01F6A1E26000EA0
:101760001F22820E1E242D6EFF0E1F202E6ECEEF26
:101770000BF0D89029362A362B362C3626AEC3EFFE
:101780000BF0C5EF0BF0C6EF0BF02980D890233695
:101790002436253626362D06D8A02E062BAED3EFBE
:1017A0000BF0D5EF0BF0B9EF0BF0000E276E26AE65
:1017B000DCEF0BF0DEEF0BF002EF0CF0FF0E23146A
:1017C0001E6EFF0E24141F6EFF0E2514206E7F0E5A
:1017D0002614216E1E501F1020102110D8B4F3EFD4
:1017E0000BF0F5EF0BF0F9EF0BF0010E276E02EFA7
:1017F0000CF029A0FEEF0BF000EF0CF002EF0CF064
:10180000F5EF0BF02750D8B408EF0CF00AEF0CF00E
:101810002EEF0CF0010E2926000E2A222B222C225C
:101820002CA015EF0CF017EF0CF02EEF0CF029C0E8
:101830001EF02AC01FF02BC020F02CC021F0213454
:10184000213220321F321E321EC029F01FC02AF062
:1018500020C02BF021C02CF02D4A2E2A2EBE39EFAD
:101860000CF02E5008E12D28D8A039EF0CF03BEFFA
:101870000CF045EF0CF0000E296E000E2A6E800E63
:101880002B6E7F0E2C6E73EF0CF02EBE52EF0CF011
:101890002E5006E12D04D8B050EF0CF052EF0CF0B2
:1018A0005EEF0CF0000E296E000E2A6E000E2B6EFD
:1018B000000E2C6E000E226E73EF0CF02DC028F07F
:1018C000FF0E2916FF0E2A167F0E2B16000E2C1661
:1018D00028A06DEF0CF06FEF0CF070EF0CF02B8E7A
:1018E000D89028302C6E22502C1229C016F02AC015
:1018F00017F02BC018F02CC019F012003250800BDA
:101900003F6E32503224466E31AE89EF0CF08BEFD1
:101910000CF08CEF0CF046804650D8B492EF0CF0EF
:1019200094EF0CF0A9EF0CF04628D8A49AEF0CF035
:101930009CEF0CF0A4EF0CF0000E2F6E000E306E3A
:10194000000E316E000E326E318E000E326EB1EF2F
:101950000CF0000E2F6E000E306E000E316E000E79
:10196000326E3650800B3F1A36503624476E35AEF5
:10197000BCEF0CF0BEEF0CF0BFEF0CF0478047500F
:10198000D8B4C5EF0CF0C7EF0CF0DCEF0CF0472833
:10199000D8A4CDEF0CF0CFEF0CF0D7EF0CF0000E89
:1019A000336E000E346E000E356E000E366E358EC0
:1019B000000E366EE4EF0CF0000E336E000E346E47
:1019C000000E356E000E366E335034103510361062
:1019D000D8A4EDEF0CF0EFEF0CF007EF0DF0000ED8
:1019E0002F6E000E306E000E316E000E326E800EC5
:1019F00031127F0E32123F5032122FC02FF030C002
:101A000030F031C031F032C032F04AEF0EF04650C3
:101A1000D8A40DEF0DF00FEF0DF019EF0DF0000E43
:101A20002F6E000E306E000E316E000E326E4AEFD9
:101A30000EF0475046C037F0386A375E000E385A0D
:101A40007F0E3724406E000E3820416E2FC03BF0D1
:101A500030C03CF031C03DF032C03EF0000E2F6E81
:101A6000000E306E000E316E000E326E000E426EB1
:101A7000000E436E000E446E000E456E000E476E63
:101A80007AEF0DF04750D8B448EF0DF04AEF0DF063
:101A900061EF0DF0D8903B363C363D363E36D8905F
:101AA0002F3630363136323645AE59EF0DF05BEF1A
:101AB0000DF05CEF0DF02F80D8904236433644365F
:101AC000453633503B5C34503C5835503D583650C9
:101AD0003E58D8A06EEF0DF070EF0DF079EF0DF0DD
:101AE000458C33503B5E34503C5A35503D5A36504D
:101AF0003E5A472A190E476480EF0DF082EF0DF031
:101B000042EF0DF03B503C103D103E10D8B48BEF2F
:101B10000DF08DEF0DF0A5EF0DF04280A5EF0DF06B
:101B2000D8902F3630363136323645AE9AEF0DF03A
:101B30009CEF0DF09DEF0DF02F80D890423643368C
:101B4000443645364006D8A0410631AEAAEF0DF026
:101B5000ACEF0DF090EF0DF0000E476E45AEB3EF19
:101B60000DF0B5EF0DF0D9EF0DF0FF0E4214376E0A
:101B7000FF0E4314386EFF0E4414396E7F0E451469
:101B80003A6E3750381039103A10D8B4CAEF0DF009
:101B9000CCEF0DF0D0EF0DF0010E476ED9EF0DF048
:101BA0002FA0D5EF0DF0D7EF0DF0D9EF0DF0CCEF62
:101BB0000DF04750D8B4DFEF0DF0E1EF0DF005EF79
:101BC0000EF0010E2F26000E30223122322232A0DA
:101BD000ECEF0DF0EEEF0DF005EF0EF02FC037F04B
:101BE00030C038F031C039F032C03AF03A343A32CD
:101BF00039323832373237C02FF038C030F039C080
:101C000031F03AC032F0404A412A41BE10EF0EF0A6
:101C1000415008E14028D8A010EF0EF012EF0EF06E
:101C20001DEF0EF0000E416E4068000E2F6E000E8C
:101C3000306E000E316E000E326E41BE2AEF0EF095
:101C4000415006E14004D8B028EF0EF02AEF0EF024
:101C500038EF0EF0000E416E000E406E000E2F6E3B
:101C6000000E306E000E316E000E326E000E3F6EB2
:101C700040C046F046A03FEF0EF041EF0EF044EFBB
:101C80000EF0318E45EF0EF0319ED8904630326E18
:101C9000FBEF0CF01200990E066EBB0E076E160ECF
:101CA000086E3B0E096E64C00AF065C00BF066C09A
:101CB0000CF067C00DF086EC10F0D8B062EF0EF0BB
:101CC00064EF0EF06DEF0EF0990E0001646FBB0E25
:101CD000656F160E666F3B0E676F000167BF75EF8D
:101CE0000EF073EF0EF07DEF0EF0000E646F000E3D
:101CF000656F000E666F000E676F000E336E000E8C
:101D0000346E000E356E410E366E000E1A6E1B0ECE
:101D10001B6E370E1C6E4C0E1D6E64C016F065C037
:101D200017F066C018F067C019F069EC0AF016C029
:101D30002FF017C030F018C031F019C032F07EEC2F
:101D40000CF02FC04CF030C04DF031C04EF032C01E
:101D50004FF0000E486EFF0E496E7F0E4A6E470E22
:101D60004B6E8FEC11F048C050F049C051F04AC0A2
:101D700052F04BC053F002EC10F050C06CF051C068
:101D80006DF0000E336E000E346E000E356E410E97
:101D9000366E000E1A6E1B0E1B6E370E1C6E4C0E2E
:101DA0001D6E64C04CF065C04DF066C04EF067C05B
:101DB0004FF0990E486EBB0E496E160E4A6E3B0EE2
:101DC0004B6E8FEC11F048C016F049C017F04AC0B6
:101DD00018F04BC019F069EC0AF016C02FF017C0CC
:101DE00030F018C031F019C032F07EEC0CF02FC08A
:101DF00068F030C069F031C06AF032C06BF068C082
:101E00004CF069C04DF06AC04EF06BC04FF0000E50
:101E1000486EFF0E496E7F0E4A6E470E4B6E8FEC7A
:101E200011F048C050F049C051F04AC052F04BC0C8
:101E300053F002EC10F050C06EF051C06FF06CC067
:101E400078F06DC079F06EC07AF06FC07BF0120050
:101E50000E6E0E50D8B42FEF0FF031EF0FF053EF9E
:101E60000FF009BE38EF0FF036EF0FF053EF0FF021
:101E700006C00AF007C00BF008C00CF009C00DF056
:101E80000A1E0B1E0C1E0D1E0A2A000E0B220C220F
:101E90000D220AC010F00BC011F00CC012F00DC0E2
:101EA00013F05BEF0FF006C010F007C011F008C090
:101EB00012F009C013F00650071008100910D8A43A
:101EC00064EF0FF066EF0FF070EF0FF0000E066E8C
:101ED000000E076E000E086E000E096E01EF10F086
:101EE000960E0F6E7AEF0FF00F2AD890133212323F
:101EF00011321032000E10140A6E000E11140B6E07
:101F0000000E12140C6EFE0E13140D6E0A500B1000
:101F10000C100D10D8A48FEF0FF091EF0FF074EFAD
:101F20000FF09FEF0FF00F2A010E1026000E112266
:101F300012221322D8901332123211321032000EB4
:101F400010140A6E000E11140B6E000E12140C6E9B
:101F5000FF0E13140D6E0A500B100C100D10D8A4A8
:101F6000B4EF0FF0B6EF0FF093EF0FF0BEEF0FF0FE
:101F70000F06D890103611361236133612BEC3EF44
:101F80000FF0C5EF0FF0CDEF0FF0020E0F60CBEFAB
:101F90000FF0CDEF0FF0B8EF0FF00FB0D2EF0FF062
:101FA000D4EF0FF0D5EF0FF0129ED8900F320FC084
:101FB0000AF00B6A0C6A0D6A0AC00DF00C6A0B6A13
:101FC0000A6A0A5010120B5011120C5012120D50C6
:101FD00013120E50D8B4EFEF0FF0F1EF0FF0F9EF4E
:101FE0000FF009BEF8EF0FF0F6EF0FF0F9EF0FF07A
:101FF000138E10C006F011C007F012C008F013C015
:1020000009F0120052345334556E5550D8A40BEFDA
:1020100010F00DEF10F017EF10F0000E506E000EE4
:10202000516E000E526E000E536E85EF10F050C0D0
:1020300060F051C061F052C062F053C063F0200EF6
:1020400028EF10F00001D8906333623361336033BE
:10205000E82E22EF10F06051546E528EFF0E501693
:10206000FF0E5116FF0E5216000E5316960E555EB9
:1020700055BE3FEF10F03DEF10F055EF10F055500A
:10208000800A970FD8B047EF10F049EF10F04BEFF0
:1020900010F00DEF10F0D8905332523251325032CE
:1020A000553E4BEF10F06DEF10F01F0E55645BEFD7
:1020B00010F05DEF10F065EF10F00DEF10F0D8901C
:1020C000503651365236533655065550D8A46BEF1C
:1020D00010F06DEF10F05FEF10F05450D8B473EFC4
:1020E00010F075EF10F07DEF10F0531E521E511ED0
:1020F000506C000E51225222532250C050F051C059
:1021000051F052C052F053C053F01200000E0614AA
:102110000E6E000E07140F6E800E0814106E7F0EE8
:102120000914116E0E500F1010101110D8A49BEF4F
:1021300010F09DEF10F0A5EF10F0000E066E000EEF
:10214000076E000E086E000E096E000E0A140E6E69
:10215000000E0B140F6E800E0C14106E7F0E0D14FB
:10216000116E0E500F1010101110D8A4BAEF10F00D
:10217000BCEF10F0C4EF10F0000E0A6E000E0B6EF4
:10218000000E0C6E000E0D6E09AEC9EF10F0CBEF15
:1021900010F0D4EF10F0066C071ED8B0072A081E06
:1021A000D8B0082A800E09560DAED9EF10F0DBEF3B
:1021B00010F0E4EF10F00A6C0B1ED8B00B2A0C1EC6
:1021C000D8B00C2A800E0D56000E061A000E071A03
:1021D000000E081A800E091A000E0A1A000E0B1AB9
:1021E000000E0C1A800E0D1A0A50065C0B50075890
:1021F0000C5008580D500958D8B001EF11F003EFFA
:1022000011F006EF11F0D89007EF11F0D88012000E
:10221000000171BF15EF11F0715109E1B50E705D4C
:10222000D8A015EF11F017EF11F01BEF11F0000E11
:10223000716FB40E706F70C006F071C007F0000EC1
:1022400007BEFF0E086E096E010E28EC0FF006C0E7
:1022500016F007C017F008C018F009C019F0230ED7
:102260001A6E600E1B6E560E1C6E370E1D6E69ECDC
:102270000AF016C072F017C073F018C074F019C0DD
:1022800075F072C064F073C065F074C066F075C01C
:1022900067F04BEC0EF01200592A030E596453EF0D
:1022A00011F055EF11F057EF11F0000E596ECD906F
:1022B0005950020D760EF324D96E000EF420DA6E1A
:1022C000DECFCEFFDDCFCFFF7E0E5924D96EDA6A86
:1022D000000EDA22DE04D8A470EF11F072EF11F0D4
:1022E00085EF11F05850D8B478EF11F07CEF11F071
:1022F000016A012A7DEF11F0016A56C0D9FF57C06B
:10230000DAFF0150DF168BEF11F056C0D9FF57C02E
:10231000DAFF5850DF129E909D80CD801200000E93
:102320004C1A000E4D1A000E4E1A800E4F1A48C05D
:1023300006F049C007F04AC008F04BC009F04CC095
:102340000AF04DC00BF04EC00CF04FC00DF009EC80
:1023500008F006C048F007C049F008C04AF009C0BC
:102360004BF0120006C009F007C00AF0000E596ECB
:10237000F29ECD90CD92CD94CD96CD50CF0B20092D
:10238000CD6ECD8E9E909D80F28CF28E76C0CEFF6B
:1023900077C0CFFF09C056F00AC057F008C058F008
:1023A000CD8012000600D9CF02F0DACF03F0F3CFD0
:1023B00004F0F4CF05F09EA0E0EF11F0E2EF11F091
:1023C000E4EF11F04CEC11F005C0F4FF04C0F3FF92
:1023D00003C0DAFF02C0D9FF5A9211000F0EC112DA
:1023E000000E8B6E94949298890E066E0F0E076EF7
:1023F000100E086EB2EC11F0000E0001716F5A0E53
:10240000706F08EC11F003EF12F007EF08F03A0ECE
:10241000F66E240EF76E000EF86E00EE76F010EEFB
:102420000CF00900F5CFEEFFE550E150FAE1596AF2
:102430005A905A920001EEEF11F09FF6FFFF17CA73
:10244000402B01010000FFFFFFFFFFFFFFFFFFFF29
:10245000FFFFFFFFFFFFFFFFFFFFFFFFFFFFFFFF8C
:020000040030CA
:08000000000E181EFF8181FFB4
:020000040020DA
:080000000902070000000000E6
:00000001FF
