:020000040000FA
:1020000007EF10F0FFFFFFFF06828EED10F0A2EF4A
:1020100010F0C1EC10F0B3EC10F0000E026E000EE8
:10202000016E8BA416EF10F018EF10F020EF10F0F7
:10203000080E056ECA0EE82EFED7052EFCD78B942F
:102040008BA425EF10F027EF10F020EF10F0014ADD
:10205000022A02BE34EF10F0025008E10128D8A095
:1020600034EF10F036EF10F011EF10F0000E026EAA
:10207000000E016E8BA43FEF10F041EF10F04AEF1D
:1020800010F0180E056E5F0EE82EFED7052EFCD759
:1020900000F08B948BA44FEF10F051EF10F04AEF4B
:1020A00010F0014A022A02BE5EEF10F0025008E171
:1020B0000128D8A05EEF10F060EF10F03AEF10F0BA
:1020C000000E026E000E016E8BA469EF10F06BEF34
:1020D00010F074EF10F0270E056EF50EE82EFED707
:1020E000052EFCD700F08B948BA479EF10F07BEFDA
:1020F00010F074EF10F0014A022A02BE88EF10F0CF
:10210000025008E10128D8A088EF10F08AEF10F003
:1021100064EF10F00DEF10F007EF10F00600F2A4DE
:1021200094EF10F096EF10F0A0EF10F0000E046E98
:10213000010E036E8B84150ED76E9F0ED66EF29431
:10214000069211008E0EF66E210EF76E000EF86EDE
:102150000900F5CF03F00900F5CF04F006900692D0
:10216000000109EF10F0F29E010ED56EF294F28A92
:10217000F184150ED76E9F0ED66ED58EF28CF28E30
:1021800012000F0EC112000E8B6E9494120001000B
:10219000FFFFFFFFFFFFFFFFFFFFFFFFFFFFFFFF4F
:020000040030CA
:08000000000E181EFF8181FFB4
:020000040020DA
:080000000A0C000100000000E1
:00000001FF
